:100000000C94B0000C94CD000C94CD000C94CD0059
:100010000C94CD000C94CD000C94CD000C94CD002C
:100020000C94CD000C94CD000C94CD000C94CD001C
:100030000C94CD000C94CD000C94CD000C94CD000C
:100040000C94CD000C94CD000C94CD000C94CD00FC
:100050000C94CD003F05FF07FF07100300000100CF
:10006000120012001200000000000000000000005A
:10007000200020002000000000001101000000000E
:100080000B0000001C0035000D0000000000A40162
:100090000000020000000800000000030000000053
:1000A000BC00800724003804020000000700310073
:1000B000E0019F050E0129030D006F0010004000B4
:1000C0000500050000030003C0000003000000005D
:1000D000000000001C005C008D00BE00EF0020014D
:1000E00051018201B301FC0115002B001400020034
:1000F00001001D001C001B001A001900170016004B
:100100001500140013001200110000000000000090
:1001100027002600250024002300220021001F00C4
:100120001E000F000E000D000C000B000A0009005D
:10013000070006000500040003000000000008009E
:1001400000000100000005000000C00E00020008D1
:10015000B1000100000001000000020010000100D9
:1001600011241FBECFE5D8E0DEBFCDBF10E0A0E672
:10017000B0E0E6E4FAE002C005900D92A038B107C5
:10018000D9F712E0A0E8B0E001C01D92A83DB10788
:10019000E1F70E94A2030C9421050C94000090BD8D
:1001A00089B988E18AB986E880BD08955F9BFECF52
:1001B0008CB108955D9BFECF8CB908958BB180788A
:1001C000089501C08CB15F99FDCF0895DF93CF935F
:1001D00000D00F92CDB7DEB79C01FC01E050FF408C
:1001E000E032F10510F447E018C080529F4080973C
:1001F00010F444E00FC0C90180549F40809710F470
:1002000042E008C0C90180569F40809710F048E046
:1002100001C041E0E038F10518F42F7130703F6003
:10022000C90134E0969587953A95E1F78983822F45
:100230008295807F7F70872B8A836B8398B3842F0E
:100240008095892388BBFE013196DE01149615C086
:100250009798CB01022E02C0959587950A94E2F7F4
:1002600080FF02C0969A01C096980000979A21508C
:1002700078F73196EA17FB0729F08081682F70E044
:1002800027E0E6CF88B3482B48BB0F900F900F9024
:10029000CF91DF9108950F931F93CF93DF9384E263
:1002A0009CE062E870E00E94E600C0E0D0E300E07D
:1002B00014E0FE01229665917491C8010E94E60047
:1002C0000F5F1F4F82E3C230D80799F7DF91CF91BC
:1002D0001F910F910895A0E8B0E0FD0113C05F9B4E
:1002E00011C05F9BFECF8CB1819380E0E238F807AC
:1002F00049F49091800080E02091810030E0282B2B
:10030000392B1DC08299EBCF20E030E018C05F9BF5
:10031000FECF8CB18D9381E0A030B80781F480E1ED
:100320002030380770F080E72030380750F4B901EA
:1003300080E090E040E850E00E9400380895829903
:10034000E6CF0895E0E8F0E01FC05F9B1DC05F9B13
:10035000FECF8CB1819380E0E438F807A9F4909146
:10036000800080E02091810030E0822B932B7091FF
:10037000820060E02091830030E0622B732B7F705D
:100380009F700E94E60008958299DFCF0895CF9371
:10039000DF93C0E0D0E011C05F9B0FC05F9BFECF3A
:1003A0006CB1609380008DEF9FE070E00E94E600EA
:1003B000219682E0C739D80711F08299EDCFDF91FD
:1003C000CF9108956F927F928F929F92AF92BF923A
:1003D000CF92DF92EF92FF920F931F93CF93DF9311
:1003E0005FE7652E50E0752EEE24FF24C0E0D0E0DC
:1003F00001E010E03EC05F9B3CC05F9BFECF6CB154
:10040000F30161830894E11CF11CF4E0EF16F104A0
:10041000A9F4B0908000AA2480918100C82FD0E078
:10042000CA29DB29DF70D0908200CC248091830020
:10043000082F10E00C291D291F7011C086E0E81656
:10044000F10468F0E0FC0BC0F3019080882470E0B8
:10045000682979297F70CE010E94E60021960894D0
:10046000611C711CC801880F991F0496E816F906D3
:1004700011F08299C0CFDF91CF911F910F91FF9022
:10048000EF90DF90CF90BF90AF909F908F907F9034
:100490006F900895EF92FF920F931F93CF93DF9386
:1004A000C0E0D0E2FE0134912196FE0184912196B4
:1004B000FE0124912297FE0133962496E491F32EB7
:1004C000EE2490E0122F00E06E2F70E0602B712B75
:1004D0008E299F290E94E600F0E2C034DF0711F761
:1004E00080E89CE061E070E00E94E600C0E0D4E1BA
:1004F000FE012196E4918DEF9FE46E2F70E00E9443
:10050000E600C150DC4FFE0164918DEF9FE470E086
:100510000E94E600C050DC4FFE016491CF5FD740DF
:100520008DEF9FE470E00E94E600F4E1CD3DDF072F
:10053000F9F680E89CE060E170E00E94E600DF915F
:10054000CF911F910F91FF90EF9008950F931F93FC
:10055000CF93DF930EE311E0C0E0DFE0F801659197
:100560007491CE010E94E6000E5F1F4F21968FE02E
:10057000C131D80799F7DF91CF911F910F9108955D
:10058000AF92BF92CF92DF92FF920F931F93CF93C0
:10059000DF9380E090E00E940C05982F8F3F09F4D4
:1005A0005DC071E0C72ED12C83E0989F50011124CB
:1005B0000894A11CB11CCA14DB0461F1C60180506F
:1005C00090400E940C05082FC6018F5F9F4F0E942C
:1005D0000C05F82EC6018E5F9F4F0E940C0523E08C
:1005E00030E0C20ED31E2F2D22952F7030E010E088
:1005F00064E0000F111F6A95E1F7DF2DC0E0682F5E
:1006000070E06C2B7D2B7F70C901802B912B0E9499
:10061000E600D1CF8FEF93E00E940C05682F8F3F4B
:1006200029F089E29FE070E00E94E6008EEF93E0FF
:100630000E940C05682F8F3F29F089E49FE070E04D
:100640000E94E6008DEF93E00E940C05682F8F3F1B
:1006500029F089E69FE070E00E94E600DF91CF91EB
:100660001F910F91FF90DF90CF90BF90AF900895B2
:10067000E0E8F0E01AC05F9B18C05F9BFECF8CB132
:10068000819380E0E238F80781F49091800080E067
:100690002091810030E0822B932B805090400E946B
:1006A0000C055D9BFECF8CB908958299E4CF089527
:1006B000E0E8F0E019C05F9B17C05F9BFECF8CB1F4
:1006C000819380E0E338F80779F49091800080E02E
:1006D0002091810030E0822B932B805090406091DC
:1006E00082000E94140508958299E5CF089527C0DD
:1006F0005F9B25C05F9BFECF8CB18330A1F084301F
:1007000028F4813051F08230E1F40AC0853089F05C
:10071000853060F08630A9F40FC00E946B01089507
:100720000E94A20108950E94580308950E94C701E3
:1007300008950E94380308950E94E2010895829965
:10074000D7CF08952F923F924F925F926F927F92F0
:100750008F929F92AF92BF92CF92DF92EF92FF92D1
:100760000F931F93DF93CF93CDB7DEB7A2970FB64A
:10077000F894DEBF0FBECDBF92E0A92ECE01099640
:1007800098A38F8F83E1282E312C2C0E3D1EFE0165
:100790007F96FAA3E9A3FFE0F8BBA5BAA2BA1ABAFA
:1007A000F7BB22EC24BB80EF81BB10BC99E199B967
:1007B000E8E1EAB986E880BD80E090E0AF98019674
:1007C000F7E280319F07D1F7829BFECF80E090E077
:1007D000AF9A01962CE980349207D1F704E5E02E18
:1007E00000E0F02E00E01CE0F70165917491C80173
:1007F0000E94E60082E090E0E80EF91E0F5F1F4FB6
:100800009CE00034190781F7DE011196E7E7F0E07C
:1008100088E001900D928150E1F77E010894E11C7F
:10082000F11C01E01DE0F701619171917F01C801A8
:100830000E94E6000F5F1F4F8F8D98A1E816F90602
:1008400091F78CE09DE060E078E00E94E600DE0138
:100850001996EDE6F0E08AE001900D928150E1F703
:1008600019E0E12EF12CEC0EFD1E00E81CE0F70172
:10087000619171917F01C8010E94E6000F5F1F4FD7
:10088000E214F304A1F7D101E1E6F0E08CE001907D
:100890000D928150E1F771010AE11DE0F7016191CC
:1008A00071917F01C8010E94E6000F5F1F4F89A16F
:1008B0009AA1E816F90691F7BEEEEB2EB0E0FB2EFA
:1008C00000E91DE0F70165917491C8010E94E600FE
:1008D000E2E0F0E0EE0EFF1E0F5F1F4FFDE0083B71
:1008E0001F0781F7A4EDEA2EA0E0FA2E00E31DE039
:1008F000F70165917491C8010E94E60082E090E0E2
:10090000E80EF91E0F5F1F4F9DE00D33190781F7A9
:10091000AE9A0E94A6020E94C002949A01C08CB1B5
:100920005F99FDCF57C05F9B59C05F9BFECFFCB066
:100930006114710411F48F2C9924EFEF8E16910439
:1009400019F40E9477034AC08114910449F580E0AC
:1009500090E00E940C05482E55245D9BFECF8CB97B
:10096000F1E0CF2EF0E0DF2EEE24FF2415C086014B
:10097000BB24C8010E940C055D9BFECF8CB9B394CB
:100980000F5F1F4FF3E0BF16A1F70894E11CF11CA5
:1009900083E090E0C80ED91EE414F50440F31EC0B5
:1009A000830100501040C8010E940C05F81621F088
:1009B000C8016F2D0E9414050894611C711CC401AC
:1009C000880F991F880D991D01966816790631F4D4
:1009D0000E94C00266247724882499248299A3CF98
:1009E00081E095E060E070E00E94E60082E095E042
:1009F00060E070E00E94E6008CE09FE061E070E063
:100A00000E94E60081E19FE063E070E00E94E60062
:100A10009498AF98AE98BFCEE199FECF9FBB8EBBA6
:100A2000E09A99278DB30895262FE199FECF9FBBB9
:100A30008EBB2DBB0FB6F894E29AE19A0FBE0196D9
:060A40000895F894FFCFB9
:100A4600013000160224000E0000003000000030C5
:100A56000024000F025B0430002400E0013804008B
:107000000F931F93CF93DF93DA010FB7F894E199B1
:10701000FECFAB0183E0FB0180935700E89507B6F4
:1070200000FCFDCFFA0111E0BA0160587F4F8C914E
:1070300011963C91119720E0E901C80FD11D1296DD
:107040000E0110935700E89511243296E617F707C2
:1070500071F785E0FA0180935700E89507B600FCC8
:10706000FDCF81E180935700E8950FBFDF91CF916D
:067070001F910F9108952D
:00000001FF
